:020000040000FA
:060000000A128A110E280D
:10000800FE00030EF8000408F9000A08FA000A12B4
:100018008A11F72A0A128A111128FB01FC01FD0135
:1000280083120313AE01AF01B001B101B201B301F4
:10003800B401B501B601B70183010A128A11C128BA
:100048008316031388010811881103300A128A11D4
:10005800DB220A128A11113083120313A5003930EA
:10006800A400A40B3528A50B35283A2803300A121A
:100078008A11DB220A128A11523083120313A40058
:10008800A40B4428000003300A128A11DB220A124A
:100098008A11523083120313A400A40B51280000C4
:1000A80002300A128A11DB220A128A115230831294
:1000B8000313A400A40B5E28000002300A128A1160
:1000C800DB220A128A1108300A128A11DB220A126C
:1000D8008A112B3083120313A400A40B712800305B
:1000E8000A128A11DB220A128A1108300A128A11AE
:1000F800DB220A128A112B3083120313A400A40BEB
:10010800832800300A128A11DB220A128A11013070
:100118000A128A11DB220A128A110A308312031387
:10012800A500BB30A400A40B9728A50B97289C28F2
:1001380000300A128A11DB220A128A1106300A12CA
:100148008A11DB220A128A112B3083120313A400AE
:10015800A40BAC2800300A128A11DB220A128A1179
:100168000C300A128A11DB220A128A112B308312F0
:100178000313A400A40BBE2808000A128A11242025
:100188000A128A11073083120313AD005830AC00ED
:100198005930AB00AB0BCE28AC0BCE28AD0BCE281C
:1001A8000A128A1105230A128A1183120313861D63
:1001B800DE28DF281D298814A401A40A01300A12A8
:1001C8008A117F210A128A1112300A128A116B22AF
:1001D8000A128A11273083120313AD000D30AC00C8
:1001E8002530AB00AB0BF628AC0BF628AD0BF62888
:1001F800FD2883120313A401A40A02300A128A11EB
:100208007F210A128A1101300A128A116B220A12FE
:100218008A11273083120313AD000D30AC0025304E
:10022800AB00AB0B1529AC0B1529AD0B15291C29F7
:10023800D9288810D4280A128A110E288312031389
:10024800A50025080F39A1002108A3002508F039C9
:10025800A1002108A40008152408A10004300310F7
:10026800A10CFF3E031D332921080A128A11BB2263
:100278000A128A118312031388152130831203137B
:10028800A2007530A100A10B4729A20B47294C29D0
:10029800831203138811213083120313A2007530CF
:1002A800A100A10B5529A20B55295A298312031322
:1002B80023080A128A11BB220A128A118312031315
:1002C8008815213083120313A2007530A100A10BF9
:1002D8006B29A20B6B297029831203138811213013
:1002E80083120313A2007530A100A10B7929A20B78
:1002F80079297E29080083120313A7002703031D09
:1003080086298729AB2924087F3EA5002508AA004D
:100318002A08A50004300310A50CFF3E031D8F29F1
:100328002508A6002608A9002A080F39A5002508CF
:10033800A80029080A128A11DB220A128A118312DC
:10034800031328080A128A11DB220A128A110230C2
:10035800831203132706031DB229B329D7292408BA
:10036800BF3EA5002508AA002A08A50004300310EE
:10037800A50CFF3E031DBB292508A6002608A900D9
:100388002A080F39A5002508A80029080A128A1189
:10039800DB220A128A118312031328080A128A110F
:1003A800DB220A128A110800F601F31FDC29DD2975
:1003B800E429F209F309F20A0319F30AF601F60A25
:1003C800F11FE729E829ED29F009F109F00A0319D5
:1003D800F10A700871040319F229F329222AF50198
:1003E800F50A012A01300310F00DF10DFF3E031D3F
:1003F800F7290130F4007408F507F11F042A052ACB
:10040800F62971087302031D0B2A70087202031C77
:100418000E2A0F2A152A7008F2027108031CF3032A
:10042800F30201300310F10CF00CFF3E031D162AF5
:100438000130F502031D212A222A052A760803190C
:10044800262A272A2C2AF209F309F20A0319F30AA1
:100458007308F1007208F0000800831203138C1E61
:10046800362A372A6A2A1A08F7007C082E3E8400A2
:100478007708831380000A30F0000030F1007C0810
:10048800013EF200003003180130F3000A128A110D
:10049800D8210A128A117008F7007708FC000A3080
:1004A800F0000030F1007B08013EF2000030031834
:1004B8000130F3000A128A11D8210A128A11700831
:1004C800F7007708FB00831203138C1208008312CD
:1004D8000313A800A601A701862A26082807840076
:1004E8000A128A1194220A128A110A128A112221E6
:1004F8000A128A11013083120313A6070318A70AE8
:100508000030A7072608280784000A128A119422B7
:100518000A128A11003A031D922A932A712A0800A6
:1005280002308A000408840A820700344E344934B1
:1005380043344534203454344F3420344D34453416
:1005480045345434203459344F34553400345434F9
:100558004834493453342734533420344D345934CF
:10056800203448344F344D34453420340034831219
:100578000313A000201CC12AC22AC42A0816C52AAF
:100588000812A01CC82AC92ACB2A8816CC2A881285
:10059800201DCF2AD02AD22A0817D32A0813A01D33
:1005A800D62AD72AD92A8817DA2A88130800831264
:1005B8000313A300081123080A128A11BB220A1286
:1005C8008A11831203138815213083120313A200A2
:1005D8007530A100A10BEE2AA20BEE2AF32A831292
:1005E8000313881108000A128A1131220A128A118B
:1005F8007A088A0079088400780E8300FE0E7E0E41
:10060800090000300A128A11DB220A128A1101300D
:0C0618000A128A11DB220A128A11080063
:02400E007A3FF7
:00000001FF
